:060000001DC0FECFFDCF84
:10000600FCCFFBCFFACFF9CFF8CFF7CFF6CFF5CFAE
:10001600F4CFF3CFF2CFF1CFF0CFEFCFEECFEDCFDE
:10002600ECCFEBCF3F065B4F666D7C077F6F0A0018
:10003600E0002A000000F894EE27ECBBF1E0FBBFDD
:10004600EBBFE5BFF8E1F1BDE1BD8DE0A2E0BB2766
:10005600ED938A95E9F780E092E0A0E6ED930197AB
:10006600E9F7E4E3F0E085919591009761F0A591B9
:10007600B59105901590BF01F00105900D9201977D
:10008600E1F7FB01F0CFEFE5EDBFE2E0EEBFC0EE3A
:10009600D0E000C0EFEFEABBEBBBE7BBE0E0E8BBBC
:1000A600E4BBEFEFE5BBE0E0E1BBEFEFE2BBE0E096
:1000B600E3BFE2BFECBFEFBDEEBDEDBDECBDE7BDFE
:1000C600E6BDEBBDEABDE9BDE8BDE2BDE5BDE4BD0B
:1000D600E3BDE9BFE5BFE4BFEAB9E0E8E8B9E0E0BF
:1000E600E0BFE6B9EDB9E6BFE0B3EF705E2EE3B36D
:1000F600EF704E2EEAE05E1618F4E52D14D004C01B
:10010600EAE05E1610F0E9E7E8BBEAE04E1620F4F6
:10011600E42D09D0E09504C0EAE04E1610F0E6E8BA
:10012600EBBBE2CFFFCFF0E0E052FF4FE081089556
:00000001FF
