:0400000026C0FECF49
:10000400FDCFFCCFFBCFFACFF9CFF8CFF7CFF6CFA8
:10001400F5CFF4CFF3CFF2CFF1CFF0CFEFCFEECFD8
:10002400EDCFECCFEBCF0000000000003F065B4FAC
:10003400666D7D077F6F010002002A000400040042
:100044002C000A00E00030000000F894EE27ECBB1E
:10005400F1E0FBBFEBBFE5BFF8E1F1BDE1BD8DE031
:10006400A2E0BB27ED938A95E9F780E092E0A0E651
:10007400ED930197E9F7EAE3F0E085919591009714
:1000840061F0A591B59105901590BF01F00105901F
:100094000D920197E1F7FB01F0CFEFE5EDBFE2E050
:1000A400EEBFC0EED0E000C0EFEFEABBE0E0EBBB98
:1000B400EFEFE7BBE0E0E8BBEFEFE4BBE0E0E5BB7C
:1000C400E1BBE7E0E2BBE0E0E3BFE2BFECBFEFBDD2
:1000D400EEBDEDBDECBDE7BDE6BDEBBDEABDE9BDE2
:1000E400E8BDE2BDE5BDE4BDE3BDE9BFE5BFE4BFF6
:1000F400EAB9E0E8E8B9E0E0E0BFE6B9EDB9E6BFA7
:10010400809902C0E89401C0689423F8819902C0E0
:10011400E89401C0689424F8829902C0E89401C06C
:10012400689425F820FE05C0A0E023FCA1E0A030DF
:1001340009F004C05524442477245BD0A0E020FCBB
:10014400A1E0A03011F423FC01C001C057D021FE6E
:1001540005C0A0E024FCA1E0A03009F001C049D012
:10016400A0E021FCA1E0A03011F424FC01C001C0F6
:1001740045D022FE05C0A0E025FCA1E0A03009F096
:1001840003C0689426F83AD0A0E022FCA1E0A03095
:1001940011F425FC01C001C031D026FE19C07394AE
:1001A400EAE0E71511F477244394EAE0E41511F446
:1001B40044245394E6E0E51541F4E89426F8A8EEC7
:1001C400B3E024D0552444247724A4E6B0E01ED020
:1001D400E72D17D0E5BBE42D14D0EBBBE52D11D0F2
:1001E400E8BB23FA20F824FA21F825FA22F888CF6C
:1001F400FFCFE89426F8A8E2B0E008C0A8E2B0E097
:1002040005C0F0E0E052FF4FE0810895109639F008
:100214008AEF90E00197F1F7A8951197C9F708952F
:00000001FF
