:0E00000021C0FECFFDCFFCCFFBCFFACFF9CF52
:10000E00F8CFF7CFF6CFF5CFF4CFF3CFF2CFF1CFC6
:10001E00F0CFEFCFEECFEDCFECCFEBCF00003F0622
:10002E005B4F666D7C077F6F010002002A000A009D
:10003E00E0002C000000F894EE27ECBBF1E0FBBFD3
:10004E00EBBFE5BFF8E1F1BDE1BD8DE0A2E0BB275E
:10005E00ED938A95E9F780E092E0A0E6ED930197A3
:10006E00E9F7E6E3F0E085919591009761F0A591AF
:10007E00B59105901590BF01F00105900D92019775
:10008E00E1F7FB01F0CFEFE5EDBFE2E0EEBFC0EE32
:10009E00D0E000C0E0E0EABBEBBBEFEFE7BBE0E097
:1000AE00E8BBE4BBE5BBE1BBE1E0E2BBE0E0E3BF04
:1000BE00E2BFECBFEFBDEEBDEDBDECBDE7BDE6BDF5
:1000CE00EBBDEABDE9BDE8BDE2BDE5BDE4BDE3BD06
:1000DE00E9BFE5BFE4BFEAB9E0E8E8B9E0E0E0BFB8
:1000EE00E6B9EDB9E6BF809902C0E89401C0689404
:1000FE0021F8A0E021FCA1E0A03011F420FC01C009
:10010E0001C05394EAE0E51509F45524E52DF0E01D
:10011E00E052FF4FE081E8BB21FA20F8E4CFFFCF99
:00000001FF
