:0E00000026C0FECFFDCFFCCFFBCFFACFF9CF4D
:10000E00F8CFF7CFF6CFF5CFF4CFF3CFF2CFF1CFC6
:10001E00F0CFEFCFEECFEDCFECCFEBCF1027E80345
:10002E0064000A0001000010000110000100000031
:10003E000000010002003C00020004003E0000002F
:10004E00F894EE27ECBBF1E0FBBFEBBFE5BFF8E1A8
:10005E00F1BDE1BD8DE0A2E0BB27ED938A95E9F7F6
:10006E0080E092E0A0E6ED930197E9F7E0E4F0E09E
:10007E0085919591009761F0A591B5910590159098
:10008E00BF01F00105900D920197E1F7FB01F0CF52
:10009E00EFE5EDBFE2E0EEBFC0EED0E000C0E0E085
:1000AE00EABBEBBBE7BBE8BBE4BBE5BBEFEFE1BBF9
:1000BE00E0E0E2BBE3BFE2BFECBFEFBDEEBDEDBDE6
:1000CE00ECBDE7BDE6BDEBBDEABDE9BDE8BDE2BDF9
:1000DE00E5BDE4BDE3BDE9BFE5BFE4BFEAB9E0E8D5
:1000EE00E8B9E0E0E0BFE6B9EDB9E6BFB19B4EC0BE
:1000FE00B09902C0E89401C0689421F8A0E020FCF9
:10010E00A1E0A03011F421FC01C003C0F201319630
:10011E002F0121FA20F8A0EEB0E058D0EF5FFF4F8C
:10012E006F4F7F4F58D0A091E000B091E1008091C9
:10013E00E2009091E300A530E1E0BE07E0E08E071B
:10014E00E0E09E0710F100240414050414F423D0FB
:10015E000CF402C0E8E417C01ED014F421D00CF445
:10016E0002C0E0E310C01CD014F41FD00CF402C087
:10017E00E0E409C01AD02CF4E4E6F0E0E415F5054D
:10018E000CF402C0E8E0E2BB15D003C013D0E0E0EF
:10019E00E2BBACCFFFCFE8E0F0E0E415F505089543
:1001AE00E8E1F0E0E415F5050895E8E2F0E0E41585
:1001BE00F5050895E0E0E093E000E093E100E093C0
:1001CE00E200E093E300442455240895ED91FD915F
:1001DE006D917D9108957E936E93FE93EE930895A7
:00000001FF
