:0C00000014C0FECFFDCFFCCFFBCFFACF29
:10000C00F9CFF8CFF7CFF6CFF5CFF4CFF3CFF2CFC0
:10001C00F1CFF0CFEFCFEECFEDCFECCFEBCFF8941D
:10002C00EE27ECBBF1E0FBBFEBBFE5BFF8E1F1BDA8
:10003C00E1BD8DE0A2E0BB27ED938A95E9F780E066
:10004C0092E0A0E6ED930197E9F7EFE5EDBFE2E072
:10005C00EEBFC0EED0E000C0E0E0EABBEBBBE7BB1C
:10006C00EFEFE8BBE0E0E4BBE5BBEFEFE1BBE0E0CA
:10007C00E2BBE3BFE2BFECBFEFBDEEBDEDBDECBD3F
:10008C00E7BDE6BDEBBDEABDE9BDE8BDE2BDE5BD42
:10009C00E4BDE3BDE9BFE5BFE4BFEAB9E0E8E8B918
:1000AC00E0E0E0BFE6B9EDB9E6BFB09905C028D0F5
:1000BC002AD0909828D022C0B29909C021D08FECB8
:1000CC008A95F1F790988FEC8A95F1F717C0B4994F
:1000DC0009C016D085E78A95F1F7909885E78A953F
:1000EC00F1F70CC0B69909C00BD08DE28A95F1F7E7
:1000FC0090988DE28A95F1F701C09198D6CFFFCFF9
:10010C00909A919A08958CE492E00197F1F70895F2
:00000001FF
