:0600000014C0FECFFDCF8D
:10000600FCCFFBCFFACFF9CFF8CFF7CFF6CFF5CFAE
:10001600F4CFF3CFF2CFF1CFF0CFEFCFEECFEDCFDE
:10002600ECCFEBCFF894EE27ECBBF1E0FBBFEBBFD8
:10003600E5BFF8E1F1BDE1BD8DE0A2E0BB27ED93A0
:100046008A95E9F780E092E0A0E6ED930197E9F75B
:10005600EFE5EDBFE2E0EEBFC0EED0E000C0EFEFAF
:10006600EABBE0E0EBBBE7BBEFEFE8BBE0E0E4BBFD
:10007600E5BBE1BBE2BBE3BFE2BFECBFEFBDEEBD5C
:10008600EDBDECBDE7BDE6BDEBBDEABDE9BDE8BD36
:10009600E2BDE5BDE4BDE3BDE9BFE5BFE4BFEAB946
:1000A600E0E8E8B9E0E0E0BFE6B9EDB9E6BFB0994F
:1000B60005C0D89A28D0D89826D023C0B19909C0AF
:1000C600D89A8FEC8A95F1F7D8988FEC8A95F1F744
:1000D60018C0B2990AC0D89AD99A85E78A95F1F7D5
:1000E600D89885E78A95F1F70CC0B39909C0D89AD4
:1000F6008DE28A95F1F7D8988DE28A95F1F701C0DD
:10010600D898D5CFFFCF8CE492E00197F1F7089508
:00000001FF
