:0800000031C0FECFFDCFFCCFA3
:10000800FBCFFACFF9CFF8CFF7CFF6CFF5CFF4CFB4
:10001800F3CFF2CFF1CFF0CFEFCFEECFEDCFECCFE4
:10002800EBCF000019000A001300610030004553AF
:10003800434F4D0080C0010002002A000100E90082
:100048002C000100EA002E000100EC003000010045
:10005800EE0032000200F0003C000000F894EE27A9
:10006800ECBBF1E0FBBFEBBFE5BFF8E1F1BDE1BDE3
:100078008DE0A2E0BB27ED938A95E9F780E092E056
:10008800A0E6ED930197E9F7EEE3F0E0859195910D
:10009800009761F0A591B59105901590BF01F00109
:1000A80005900D920197E1F7FB01F0CFEFE5EDBF69
:1000B800E2E0EEBFC0EED0E00DC0AA93E881E066B2
:1000C800E7B983E08A95F1F7369A349BFECF349AE4
:1000D800E5B105C2E0E0EABBEBBBEFEFE7BBE0E070
:1000E800E8BBE4BBE5BBE1BBEFEFE2BBE0E0E3BFAD
:1000F800E2BFECBFEFBDEEBDEDBDECBDE7BDE6BDBB
:10010800EBBDEABDE9BDE8BDE2BDE5BDE4BDE3BDCB
:10011800E9BFE5BFE4BFEAB9E0E8E8B9E0E6E7B976
:10012800E1E8E6B9E0E1E0BFE0E0EDB9E6BFA0E173
:10013800AFD166247724D5D1E4E1F0E05F01A1E0F6
:10014800D3D1809902C0E89401C0689421F820FEB8
:1001580005C0A0E021FCA1E0A03009F009C0E091B1
:10016800EB00E03011F4E1E001C0E0E0E093EB00E7
:1001780021FA20F8EBE0BAD1A6E3B0E076D1A0E00E
:100188009CDFE093E500F0E04FD3A6D2AAE9B9E9F5
:1001980089EB9FE3CFD2ADD1B5D1BDD119D309F049
:1001A80008F402C0B8D1A5D1ADD1E0E0F0E060E23A
:1001B80071E4C0D25AD22F01D201E4E6F0E04CD368
:1001C800CE2ED201E4E6F0E04FD32F01D201A8D120
:1001D8004BD3E093E400D201A6D1DE2EEAE0A6D10B
:1001E800AC2DA05D22D1EBE0A1D1AD2DA05D1DD13C
:1001F800ECE09CD1AEE219D1EDE098D1A091E400F9
:10020800A05D13D1EEE092D1AFED0FD1EFE08ED12A
:10021800A3E40BD1A091EB00A130C9F4819906C0E9
:1002280088D11CF45ED188D101C08CD1829906C0D6
:1002380080D11CF456D18AD101C084D1839906C0DB
:1002480078D11CF44ED188D101C07CD11CC08199D1
:100258000AC06FD13CF445D185D131978BD108F0D4
:1002680091D101C06FD1829906C063D11CF439D1F4
:1002780096D101C067D1839906C05BD11CF431D1F6
:1002880094D101C05FD1E1E3F0E0E615F70524F46D
:100298006624772461D103C0F30131963F01A09110
:1002A800E600AC3310F052D186D1A091E700AC3310
:1002B80028F042D1E0E0E093E7007DD1A091E8008A
:1002C800A83140F072D1E0E0E093E80074D1E0E0BA
:1002D800E093E700A091E900A03220F060D1E0E0CF
:1002E800E093E900A091EA00AD3038F03BD1E0E0BE
:1002F800E093EA003FD108F045D1E0E017D1A091A2
:10030800E8005DD15ED1E1E011D1A091E8005CD1B7
:10031800E2E00CD1AAE389D0E3E008D1A091E7009C
:100328004ED14FD1E4E002D1A091E7004DD1E5E0F4
:10033800FDD0AAE37AD0E6E0F9D0A091E6003FD15B
:1003480040D1E7E0F3D0A091E6003ED1E0E0CED086
:100358003FD16FD236D1E1E0C9D03AD182D231D182
:10036800E2E0C4D03AD165D22CD1E3E0BFD035D198
:1003780078D227D1E4E0BAD0ADE257D0E5E0B6D0E4
:10038800A091EA001CD11DD1E6E0B0D0A091EA000E
:100398001BD1E7E0ABD0ADE248D0E8E0A7D0A09110
:1003A800E9000DD10ED1E9E0A1D0A091E9000CD16E
:1003B800C6CEFFCFAA93E8B3EF70AE2FE881E07FF7
:1003C800EA2BE8BB0FD1C29A0DD1C2980BD187C0D6
:1003D800AA93A881EFDFE881E295E883A881EADFA4
:1003E80081E18A95F1F77BC0AA93E881F0E0E051BA
:1003F800FF4FE081A981AE0FEBDFE981E093F400C4
:10040800E881E093F50022960895A2E0E1DFA3E0F9
:100418006BD0ACE0DDDFA1E0DBDFA3E065D0E0E09E
:10042800E093F500E093F4000895AA93A881AA3018
:1004380031F0E091F600A091F400AE1760F0E0E032
:10044800EA93A091F500AF5FA093F500CDDFA881F6
:10045800AA3009F444C0E091F400EF5FE093F4009F
:10046800C09AA881B5DFC0983AC0BA93AA931A93E4
:10047800E981FA813196E983FA833197E4911E2F55
:10048800E03019F0A12FD1DFF3CF1881239608951A
:10049800AA93E7B3E06FE7BBBA9AB89AB99AC29839
:1004A800C098C198E881E093F600E058E093F20024
:1004B800E881E054E093F300A4E116D097D096D0F9
:1004C80095D0A0E277DF81E28A95F1F7A8E280DF94
:1004D800A4E07EDFA5E87CDFA6E07ADF96DF219640
:1004E8000895882499240895B0E086C0EA93A0E08E
:1004F8007BCFE093E000F093E1006093E20070931B
:10050800E3000895A091E000B091E1008091E2003D
:100518009091E3000895E0E0F0E066EC72E408955D
:10052800EAE0F0E00895FCDF97D10895EA93A1E0AE
:100538005BCFA814B9040895E091E800EF5FE09359
:10054800E8000895F40131964F010895E091E7001D
:10055800EF5FE093E7000895E091E600EF5FE09336
:10056800E6000895AEEEB0E0ED91FD913196FE9370
:10057800EE930895A091EE00B091EF00A436E0E06C
:10058800BE070895ACEEB0E0ED91FD913196FE9373
:10059800EE93E0E0E093EE00E093EF000895E09141
:1005A800EA00EF5FE093EA000895E091E900EF5F69
:1005B800E093E9000895E0E0E093E6000895B0E0F4
:1005C800B2CFE05DAE2F31CFBB27AADF4DD1F9CF37
:1005D800A091EC00B091ED00A3CFA091EE00B091F6
:1005E800EF009ECF82E08A95F1F70895A0E3E2DE5E
:1005F80081E28A95F1F70895109639F08AEF90E034
:100608000197F1F7A8951197C9F70895552342F472
:10061800503811F4E0FF04C03196691F791F6BF060
:1006280050E8572711F45F9373C05F3F31F0660FAE
:10063800000C57956795752F08955F9300200AF071
:1006480073C06CC050E8192E1522880F991F952782
:10065800550F879550E8072E0522660F771F7527D7
:10066800550F67950895689401C0E8945F93F2DF89
:10067800703818F07F3F08F44BC056E1571BAAF4B6
:10068800519558300EF4593030F0EFEFFFEF6FEF1F
:100698007FE777F91AC077275523B9F0EE0FFF1FC8
:1006A800661F771F5A95D1F710C07727583028F062
:1006B800EF2FF62F672F5850F9CF552331F0769545
:1006C8006795F795E7955A95D1F700200AF4A4D0D5
:1006D8005F910895689401C0E89430976040704035
:1006E800B1F0002426F0772312F4009495D0172E49
:1006F8007EE1112032F07A95EE0FFF1F661F111C64
:10070800F9CFEF2FF62F612D5F938ADF5F91089560
:10071800EE27FF27662777275F910895EFEFFFEF12
:100728006FE77FEF5F910895EFEFFFEF6FE77FE7E8
:100738005F9108955F9386DF703851F3903841F3E5
:1007480001240894791F23F41CF300203AF3ECCF1A
:100758000F921F932F933F934F9311272227992787
:10076800689FA0018F9F302D410D591F6B9F300D41
:10077800411D591F8E9F27D0BF9F25D06A9F23D028
:10078800BE9F1DD0AF9F1BD0AE9F110D291F391FD3
:10079800491F591FE32FF42F652F522F4F913F9177
:1007A8002F911F910F9066232AF0550FEE1FFF1F00
:1007B800661F02C073954BF229DF5F910895100DF3
:1007C800211D391F02C0200D311D491F591F0895D1
:1007D80099239AF0772342F0971748F029F4AE1737
:1007E800BF07860720F031F098948894089598946C
:1007F800089408951894889408957723C2F7971752
:1008080098F3A9F7EA17FB07680788F399F3ECCF81
:10081800F195E195F0400895F09560957095E19512
:10082800FF4F6F4F7F4F08956F2F660F660B762F20
:1008380008950024112490E1AA0FBB1F001C111C6D
:100848000E1A1F0A18F40E0E1F1E01C0A1609A95F9
:1008580099F7FD01D001089515D0EBDF0EF4D8DF2C
:100868000895E7DFFD010895E894B7FF04C0A09557
:10087800B09511966894F7FDCBDFDBDFFD010EF430
:10088800C7DF0895E894F7FF02C0C2DF6894B7FF96
:1008980006C0A095B095119600F8039400FA089543
:00000001FF
