:0200000022C01C
:1000020050C0FDCFFCCFFBCFFACFF9CFF8CFF7CF5F
:10001200F6CFF5CFF4CFF3CFF2CFF1CFF0CFEFCFD2
:10002200EECF5DC0ECCFEBCF4079243019120278CD
:100032000010C0CFA4868B9290C780821400040166
:100042002A000000F894EE27ECBBF1E0FBBFEBBF07
:10005200E5BFF8E1F1BDE1BD8DE0A2E0BB27ED9384
:100062008A95E9F780E092E0A0E6ED930197E9F73F
:10007200EEE3F0E085919591009761F0A591B5913D
:1000820005901590BF01F00105900D920197E1F7DF
:10009200FB01F0CFEFE5EDBFE2E0EEBFC0EED0E056
:1000A20047C075D3E615F705ACF4662477247AD3F6
:1000B20051F07ED3319623D67BD334971CF0A2E045
:1000C200B0E07AD306C074D3319719D679D30AF443
:1000D2007CD304C0F30131963F01319720C057D33E
:1000E200E815F905C4F4882499245CD359F073D334
:1000F200F6D5319704D672D322F46DD3E0E0F0E066
:10010200FED508C070D33196FAD56DD3349714F06A
:1001120062D352D304C0F40131964F013197E99171
:10012200EFBFF991E991B991A991999189911895A6
:10013200E0E4EBBBEFEFEABBE8BBE1E8E7BBE0E6FC
:10014200E5BBEFEFE4BBE2BBEBEFE1BBE0E0E3BF1B
:10015200E2BFECBFEFBDEEBDEDBDECBDE7BDE6BD60
:10016200EBBDEABDE9BDE8BDE2BDE5BDE4BDE3BD71
:10017200EBB7E066EBBFE2E0E5BFE0E0E4BFE0E65C
:10018200EABFE0E0E9BFEAB9E0E8E8B9E0E0E0BFF1
:10019200E6B9EDB9E6BF789429D3A1D531971CF41D
:1001A20025D327D3ACD522D39AD526D3329628D3BA
:1001B200DF01E1E1F0E06DD523D327D31DD325D3B1
:1001C200A3E0B0E025D32AD32CD3FAD21AF0F0D28E
:1001D20034970CF0FAD202D31AF005D3349714F004
:1001E200FAD2EAD26624772488249924E0E0F0E067
:1001F200E093E200F093E300E093E000F093E1008B
:10020200E3E6F0E0E093F600F093F70015D319D39C
:100212001DD328D32DD332D3AA24BB24CC24DD244E
:1002220033D3E0E0E093FC00E093FD00E093FE00B6
:10023200E093FF00E0930001E0930101E0930201EB
:10024200E0930301E093F200E093F300E091F20007
:10025200F091F300309709F098C2A1E0B0E0B1D379
:10026200AEEEB0E017D31CD315970CF007D3DF988E
:10027200AF98E8B3E168E8BBE5B3E066E5BBA0EFA1
:10028200B0E008D312D312970CF0FED28BD241F019
:1002920011D3EC0DFD1DE081EBBBAE98C79808C0F1
:1002A20009D3EA0DFB1DE081EBBBAF9AAD98C09874
:1002B200E091F400F091F500A091EA00B091EB001A
:1002C200EA17FB070CF009C1CDD2E091EC00F091E6
:1002D200ED00309731F48DD2E093EC00F093ED0015
:1002E200FBC0C6D2EDD2C9F5F1D2BB23AAF4F4D237
:1002F200119769F478D2309711F0F3D211F48ED2BB
:1003020001C077D2E093E800F093E90004C0E4D2A0
:1003120012970CF0EAD220C0DFD21197D9F463D23F
:10032200309739F4D3D209F4E6D2ECD209F4F0D200
:1003320010C059D2D6D239F4E5D209F4DCD2EED2C9
:1003420009F4E6D206C04FD2EFD219F4E7D209F48B
:10035200D2D202C0C1D21397A0C0C3D2A9F5E8D2AB
:1003620094F0BAD2119751F43ED2DF01329711F0D4
:10037200E6D211F4C0D201C0E7D204C0ADD21297C6
:100382000CF0E2D220C0A8D21197D9F42CD2A9D273
:1003920021F49CD209F4BCD213C025D2C5D239F4BF
:1003A200B1D209F4B5D292D209F4A5D209C01BD2B6
:1003B200D1D231F4B3D209F4ABD2A4D209F49BD294
:1003C20002C08AD2129769C0AFD289F5B1D284F045
:1003D200C5D251F4EDD1DF01329711F0B0D211F450
:1003E200B3D201C088D203C0B9D20CF484D21EC0E9
:1003F200B5D2D9F4DDD175D221F468D209F475D21F
:1004020013C0D6D191D239F47DD209F46ED25ED224
:1004120009F49AD209C0CCD19DD231F47FD209F429
:1004220064D270D209F490D201C098D236C092D26E
:10043200A1F54CD2BB239AF491D269F4B9D1309789
:1004420011F04FD211F4D5D101C0E8D1E093E80008
:10045200F093E90003C082D20CF45AD21EC07ED2BD
:10046200D9F4A6D1309739F431D209F46DD24AD2F7
:1004720009F43BD210C09CD134D239F443D209F4EE
:1004820063D24CD209F431D206C092D14DD219F4C2
:1004920045D209F459D201C061D212D231F461D2EB
:1004A20063D2A6EEB0E060D217C01BD231F459D2AB
:1004B200F1D1A6EEB0E058D20FC036D231F451D20B
:1004C200E9D1A6EEB0E0E6D107C044D229F449D280
:1004D2004BD2A6EEB0E0DED103C0AAEEB0E0DAD194
:1004E20049D24FD2DF01E091E400F091E500EA1732
:1004F200FB0729F5E091E600F091E700309711F44F
:1005020097981DC0EED111F4969819C00DD211F42E
:10051200959815C01FD211F4949811C0E430A0E050
:10052200FA0711F493980BC0E530A0E0FA0711F432
:10053200919805C0E630A0E0FA0709F4909821D21C
:10054200309751F435D1309709F490984CD13097C7
:1005520009F49798A89A49C0C4D191F429D1309747
:1005620009F4909840D1309709F4979821D1B9D1E4
:1005720009F4909838D1B5D109F49798A99A35C061
:10058200D3D191F415D1ADD109F490982CD1A9D140
:1005920009F497980DD1C8D109F4909824D1C4D107
:1005A20009F49798AA9A21C0D5D191F401D1BCD16E
:1005B20009F4909818D1B8D109F49798F9D0CAD112
:1005C20009F4909810D1C6D109F49798AB9A0DC04E
:1005D200E430A0E0FA0749F4EBD0BCD109F49098DA
:1005E20002D1B8D109F49798AC9AA091E700AA2356
:1005F20022F072D117970CF4C8C0BCD16DD11797F5
:100602007CF0F60131966F01E9E0F0E0BFD10CF425
:10061200C0D1F201F1D0C3D1F8D0A1E0B0E0F8D05E
:10062200A091E700AA23A2F4F50131965F01E9E067
:10063200F0E0BBD10CF4ADD1F201DED0B0D12F018C
:10064200D201ECD026D33296E093E800F093E90091
:10065200F201A3E1B0E005D3D8D037962F01D20141
:10066200E3E0F0E016D33196DCD0E8E0F0E09DD193
:1006720024F4E8E0F0E08AD10CF007C0E7D098D18A
:10068200E0E0F0E064E072E46BC0E7E0F0E08DD11E
:1006920024F4E7E0F0E07AD10CF007C0D7D088D19B
:1006A200E0E0F0E06CE172E45BC0E6E0F0E07DD116
:1006B20024F4E6E0F0E06AD10CF007C0C7D078D1AC
:1006C200E0E0F0E064E272E44BC0E5E0F0E06DD11E
:1006D20024F4E5E0F0E05AD10CF007C0B7D068D1BD
:1006E200E0E0F0E064E572E43BC0E4E0F0E05DD11C
:1006F20024F4E4E0F0E04AD10CF007C0A7D058D1CE
:10070200E0E0F0E06CE772E42BC0E3E0F0E04DD112
:1007120024F4E3E0F0E03AD10CF007C097D048D1DE
:10072200E0E0F0E062E972E41BC078D03ED11CF454
:1007320075D02CD10CF007C089D03AD1E0E0F0E0BE
:1007420066EA72E40DC055D030D11CF452D01ED1ED
:100752000CF018C07BD02CD1E0E0F0E06AEB72E440
:10076200CED1DF01CB01E0E0F0E068EC72E415D21B
:10077200E093F800F093F9006093FA007093FB00A5
:1007820059D15FD0A8ECB0E01CD160CDFFCF8A93E5
:100792009A93AA93BA93EA93FA93EFB7EA93E4E1AE
:1007A200F0E00895E091F000F091F10030970895A3
:1007B200A2E0B0E094D20895E3E0F0E0A0D2089580
:1007C200A3E0B0E090D2EE230895A2E0B0E0E0E032
:1007D200F0E095D20895A4E0B0E00895A5E0B0E07D
:1007E20082D2EE230895F7DF7AD20895A0E0B0E036
:1007F2000895E1E0F0E00895A7E0B0E032D2089574
:10080200F5DF7DD2F3DF6BD208952F01F201089557
:100812004ED2E093E800F093E9000895E2E0F0E0C0
:100822000895E093E400F093E500E3E0F0E0E09364
:10083200E600F093E7000895E091F600F091F700EA
:100842000895E093F400F093F5000895F5DFF6D1F2
:1008520028D1E093F800F093F9006093FA007093C6
:10086200FB000895E0E0E093EA00E093EB000895D6
:10087200E0E0E093EC00E093ED000895E0E0E09327
:10088200EE00E093EF000895E0E0E093F000E093E3
:10089200F1000895ED91FD913196FE93EE93089546
:1008A200A091EE00B091EF000895A091F000B091F8
:1008B200F1000895FADFEAE0CED1EC5FFE4F089531
:1008C200E091E800F091E90030970895A091E400EA
:1008D200B091E50011970895A091E600B091E7006C
:1008E2000895E130A0E0FA07089583DFE093E8007D
:1008F200F093E9000895E3E0F0E0E093E800F0937C
:10090200E9000895A091E400B091E50012970895DE
:1009120085DFE093E800F093E9000895A091E400F8
:10092200B091E50013970895E230A0E0FA07089528
:10093200A091E400B091E500119615970895FD018C
:10094200E330A0E0FA070895E0E0E093E800E093E6
:10095200E9000895E330A0E0FA070895BDDF159796
:100962000895A4EEB0E00895ED91FD913197FE93C4
:10097200EE930895E2B3EB6FE2BBE5B3E07EE5BB35
:1009820008958EDFE5E0F0E084D10895EC15FD05D1
:1009920008952FDFE093F200F093F30008952F0102
:1009A200D201EBE0F0E075D10895EA15FB05089558
:1009B200A091F800B091F9008091FA009091FB00AB
:1009C2000895109639F08AEF90E00197F1F7A89513
:1009D2001197C9F70895552342F4503811F4E0FFF6
:1009E20004C03196691F791F6BF050E8572711F444
:1009F2005F9373C05F3F31F0660F000C57956795A8
:100A0200752F08955F9300200AF073C06CC050E800
:100A1200192E1522880F991F9527550F879550E893
:100A2200072E0522660F771F7527550F67950895C4
:100A3200689401C0E8945F93F2DF703818F07F3F4A
:100A420008F44BC056E1571BAAF4519558300EF4E6
:100A5200593030F0EFEFFFEF6FEF7FE777F91AC011
:100A620077275523B9F0EE0FFF1F661F771F5A95A0
:100A7200D1F710C07727583028F0EF2FF62F672FC5
:100A82005850F9CF552331F076956795F795E7954C
:100A92005A95D1F700200AF4C9D05F91089568945D
:100AA20001C0E894309760407040B1F0002426F015
:100AB200772312F40094BAD0172E7EE1112032F07F
:100AC2007A95EE0FFF1F661F111CF9CFEF2FF62F3D
:100AD200612D5F938ADF5F910895EE27FF276627D6
:100AE20077275F910895EFEFFFEF6FE77FEF5F9159
:100AF2000895EFEFFFEF6FE77FE75F9108955F9350
:100B020086DF703851F3903841F301240894791F3D
:100B120023F41CF300203AF3ECCF0F921F932F9390
:100B22003F934F93112722279927689FA0018F9FF8
:100B3200302D410D591F6B9F300D411D591F8E9F46
:100B420027D0BF9F25D06A9F23D0BE9F1DD0AF9FC5
:100B52001BD0AE9F110D291F391F491F591FE32FAB
:100B6200F42F652F522F4F913F912F911F910F908C
:100B720066232AF0550FEE1FFF1F661F02C07395F2
:100B82004BF229DF5F910895100D211D391F02C01C
:100B9200200D311D491F591F08955F9338DF7038AA
:100BA20021F411200AF49FCFA4CF903809F495CFF5
:100BB20001240894970B1BF4D4F30020F3CF792F70
:100BC2001F932F933F934F931124112722273327EB
:100BD2004427552790E2AE17BF078607410730F03A
:100BE200AE1BBF0B860B410B089401C08894551FA6
:100BF200221F331F111CAA1FBB1F881F441F9A9557
:100C020051F7F901612D4F913F912F911F91662369
:100C120032F0550FEE1FFF1F661F7A9543F2DBDE9F
:100C22005F910895F195E195F0400895F0956095F2
:100C32007095E195FF4F6F4F7F4F08956F2F660FAD
:100C4200660B762F0895FA9FF02DEB9FF00DEA9F29
:100C5200E02DF10D08956E2F6A9FF0016B9FF00D4C
:100C620008952FD0F0DF0EF4DDDF08950024112463
:100C720090E1AA0FBB1F001C111C0E1A1F0A18F4C8
:100C82000E0E1F1E01C0A1609A9599F7FD01D001B9
:100C92000895E894B7FF04C0A095B09511966894A2
:100CA200F7FDC0DFE3DFFD010EF4BCDF0895E89439
:100CB200F7FF02C0B7DF6894EA23FB230EF4B2DF2A
:100CC2000895E894F7FF02C0ADDF6894B7FF06C04D
:100CD200A095B095119600F8039400FA0895119624
:100CE20002D0FE2F1197E199FECFFF93FFB7F89440
:100CF200AEBBBFBBE09AEDB3FFBFFF91089507D033
:100D02001196EF93EF2F03D0EF9111970895E19B86
:100D120002C0A895FCCF9FB7F894AEBBBFBBE09AC8
:100D22008DB3E81719F0EDBBE29AE19A9FBF0895DF
:00000001FF
