:060000001FC0FECFFDCF82
:10000600FCCFFBCFFACFF9CFF8CFF7CFF6CFF5CFAE
:10001600F4CFF3CFF2CFF1CFF0CFEFCFEECFEDCFDE
:10002600ECCFEBCF00000000000000000100020052
:100036002A00060004002C000000F894EE27ECBB12
:10004600F1E0FBBFEBBFE5BFF8E1F1BDE1BD8DE03F
:10005600A2E0BB27ED938A95E9F780E092E0A0E65F
:10006600ED930197E9F7E2E3F0E08591959100972A
:1000760061F0A591B59105901590BF01F00105902D
:100086000D920197E1F7FB01F0CFEFE5EDBFE2E05E
:10009600EEBFC0EED0E000C0EFEFEABBE0E0EBBBA6
:1000A600E7BBEFEFE8BBE0E0E4BBE5BBE1BBE2BBEF
:1000B600E3BFE2BFECBFEFBDEEBDEDBDECBDE7BDFE
:1000C600E6BDEBBDEABDE9BDE8BDE2BDE5BDE4BD0B
:1000D600E3BDE9BFE5BFE4BFEAB9E0E8E8B9E0E0BF
:1000E600E0BFE6B9EDB9E6BFB09902C0E89401C039
:1000F600689421F886D031F421FE04C00024081447
:10010600090409F003C0E1E0F0E04F017FD0A6301A
:10011600E1E0BE07E0E08E07E0E09E0728F4E1E0BC
:10012600F0E0E815F90509F040C06624772469D0A7
:1001360011F421FC01C003C0F20131962F0121FA0E
:1001460020F8A0EEB0E07AD0EF5FFF4F6F4F7F4F01
:100156007AD05CD0A530E1E0BE07E0E08E07E0E0B3
:100166009E0711F500240414050414F458D00CF469
:1001760002C0D89A16C053D014F456D00CF405C059
:10018600D898D99ADA98DB9A0FC04ED014F451D089
:100196000CF404C0D89AD998DA9805C04AD024F449
:1001A600D898D998DA9ADB982AC02BD029F4A0E0FF
:1001B60021FCA1E0A03009F003C0F30131963F0114
:1001C60021FA20F8E4ECF9E06E167F065CF0E615FD
:1001D600F70529F4D898D998DA98DB9803C0E1E0B6
:1001E600F0E03F01E0E0E093E000E093E100E0931F
:1001F600E200E093E300442455248824992474CF34
:10020600FFCFA0E020FCA1E0A0300895A091E0007F
:10021600B091E1008091E2009091E3000895E8E05A
:10022600F0E0E415F5050895EEE1F0E0E415F505D6
:100236000895E2E3F0E0E415F5050895ED91FD91EA
:100246006D917D9108957E936E93FE93EE9308953E
:00000001FF
